:020000040800F2
:1000000000500020C9180008C9120008CD120008CD
:10001000D1120008D5120008D91200080000000013
:10002000000000000000000000000000E1120008D5
:10003000DD12000800000000E5120008E9120008C7
:100040000D1900080D1900080D1900080D190008F8
:100050000D1900080D190008051300080D190008F6
:100060000D1900080D1900080D1900080D190008D8
:100070000D1900080D1900080D1900080D190008C8
:100080000D1900080D1900080D1900080D190008B8
:100090000D1900080D1900080D190008ED120008CF
:1000A0000D1900080D1900080D1900080D19000898
:1000B00095130008311300080D1900080D190008E8
:1000C0000D1900080D1900080D1900080D19000878
:1000D0000D1900080D1900080D1900080D19000868
:1000E0000D1900080D1900080D1900080000000086
:1000F0000000000000000000000000000000000000
:0C01000000000000000000005FF808F1A3
:10010C000FB400B583B004AA08CA0493019200206E
:10011C00191C00F089FB03B008BC04B01847C0469A
:10012C0070B5051C0C1C101C002A03D00E22835E1B
:10013C00013302D0002C14D11CE0828982239B0055
:10014C001A42F7D00668002909D0311C221C2B78E2
:10015C000B7001310135013A002AF8D136190660CD
:10016C0008E0287801350006001601F095FA013CEC
:10017C00002CF6D170BC01BC0047000030B581B03A
:10018C00041C00F0A3FB051C201C291C0022FFF7FB
:10019C00C7FF0A2001F080FA281C01B030BC02BC59
:1001AC000847C046F0B55F4656464D464446F0B447
:1001BC00AFB002908A461E1C904600220492089210
:1001CC0000E0099E42461378002B09D0252B07D05E
:1001DC00444601342378002B03D0252B01D0F8E7BB
:1001EC0044464346E51A002D07D04046291C52468A
:1001FC00FFF796FF049A521904920023E356002B42
:10020C0000D1FEE20134A04600226B46B7331A70CF
:10021C000392059201235B42069300E01E1C4246AA
:10022C0012781206121693460123984400E00591A9
:10023C005B46203B582B00D930E29B00C74A9B58A9
:10024C009F46C74A08928FE16A46B7320023D356BD
:10025C00002BE4D120231370E1E70123039A1A4306
:10026C000392DCE7331D36680596002ED6DA72420F
:10027C0005921E1C0423039A1A430392CFE72B22E8
:10028C006B46B7331A70CAE7424613780122904482
:10029C001B061B162A2B06D09B461A1C303A092A21
:1002AC000DD900211AE0331D36680696002E04DAAB
:1002BC001E1C01235B420693B1E71E1CAFE7002115
:1002CC008B005B185B0099184246127812061216C6
:1002DC00934601239844303A092AF1D90029069112
:1002EC00A6DA012252420692A2E78023039A1A430D
:1002FC00039294E700215B46303B8A00521852006F
:10030C00991843461B781B061B169B4601229044EA
:10031C00303B092B8BD8EEE74023039A1A43039208
:10032C007DE742460023D3566C2B06D1012398441B
:10033C001023039A1A43039271E71023039A1A436A
:10034C0003926CE71023039A1A43039267E75B4608
:10035C00432B02D0039AD20610D500230C930D9395
:10036C003268029869463F310CAB00F0C9FA071CA1
:10037C00431C00D145E20436099606E0321D099271
:10038C0032686B463F331A70012700226B46B73335
:10039C001A703F236B4499462DE21023039A1A439B
:1003AC000392039BDB0603D5321D099234680BE0E4
:1003BC00039B5B0605D5321D099233681B041C1484
:1003CC0002E0331D09933468002C01DB0121ECE0C1
:1003DC0064422D226B46B7331A700121E5E0039A73
:1003EC00D20605D5331D09933368049A1A60E8E6E2
:1003FC00039B5B0606D5321D099233686A46128A46
:10040C001A80DEE6331D09933368049A1A60D8E625
:10041C001023039A1A430392039BDB0603D5321D68
:10042C000992346809E0039B5B0603D5321D0992DF
:10043C00348802E0331D099334680021B1E0321D89
:10044C00099234680223039A1A43039278239B4639
:10045C000221434A0892A4E0069C00226B46B73363
:10046C001A70331D09933668B146002E00D1BFE1D6
:10047C005A46532A02D0039BDB0643D54D460E95B4
:10048C0000230A930B93002C18DB002700250E9BEE
:10049C005A59002A1FD0029869463F310AAB00F026
:1004AC002FFA421C00D1ACE1C019A04213DC043578
:1004BC00844201D1271C0EE0071CE8E70AAB00932D
:1004CC00029800210EAA002300F040FA071C431CDE
:1004DC0000D196E10E95002F00D1EEE000250A9593
:1004EC000B956C4667340AAB00930298211C0EAA3C
:1004FC003B1C00F02BFA874200D082E1E555A14667
:10050C000795E0E0002C0CDB301C0021221C00F0D5
:10051C009DF9002800D1D3E0871BA74200DDCFE076
:10052C00CBE0301C00F0D2F9071C64E11023039AD5
:10053C001A430392039BDB0603D5321D09923468E0
:10054C0009E0039B5B0603D5321D0992348802E057
:10055C00331D09933468012123E00000841F000837
:10056C0080210008AC4A0892039BDB0603D5321DA0
:10057C000992346809E0039B5B0603D5321D09928E
:10058C00348802E0331D09933468039AD20707D5E7
:10059C00002C05D00223039A1A430392022100E097
:1005AC00022100226B46B7331A70069B002B03DB2B
:1005BC008023039A9A430392002C02D1069B002BB2
:1005CC0050D0012909D001290CD302293AD0069A1E
:1005DC000792924B9946192775E0092C1CD86D4649
:1005EC00673529E067226A44914601235B429944AE
:1005FC000723234030334A461370E408002CF4D10F
:10060C00039AD20743D5302B41D001235B42994446
:10061C0030234A4613703AE06D466735013D201C85
:10062C000A2100F00FFC30312970201C0A2100F047
:10063C00CDFB041C0928F1D8013DA946231C3033FD
:10064C002B7024E067236B4499460122524291445B
:10065C000F232340089A9B5C4A4613702409002CF4
:10066C0015D0F2E7002903D067236B4499460EE0BE
:10067C00039AD20703D467236B44994607E03021D1
:10068C006A463F322723D15466226A4491466B4610
:10069C0067334A469F1A069B079314E05A46002A72
:1006AC0000D1AEE069463F310A7000226B46B73389
:1006BC001A700996894601279DE00023079302E0F2
:1006CC00069F002207923E1C079B9F4200DA1E1CCD
:1006DC006B46B7331B781B061B16002B01D001365B
:1006EC0003E0039A920700D502368423039D1D4034
:1006FC0012D1059B9C1B002C0EDD102C07DD4848ED
:10070C0010215246FFF70CFD103C102CF7DC44482E
:10071C00211C5246FFF704FD6846B7300023C35630
:10072C00002B04D001215246FFF7FAFC0CE0039A8F
:10073C00920709D568463D30302303705B46437001
:10074C0002215246FFF7ECFC802D16D1059A941B22
:10075C00002C12DD102C0ADD314B1D1C1035281C11
:10076C0010215246FFF7DCFC103C102CF7DC2C4817
:10077C001030211C5246FFF7D3FC079BDC1B002CCE
:10078C0012DD102C0ADD264B1D1C1035281C1021E7
:10079C005246FFF7C5FC103C102CF7DC20481030FB
:1007AC00211C5246FFF7BCFC4846391C5246FFF749
:1007BC00B7FC039A520712D5059B9C1B002C0EDD2F
:1007CC00102C07DD164810215246FFF7A9FC103CEF
:1007DC00102CF7DC1248211C5246FFF7A1FC331CED
:1007EC00059A964200DA131C049AD2180492E8E493
:1007FC000C4B994606273E1E00DA00260022079273
:10080C006FE704982FB03CBC90469946A246AB4685
:10081C00F0BC02BC0847000094210008A821000885
:10082C00E8200008C421000830B581B0041C0D1C60
:10083C00131C054A1068211C2A1CFFF7B3FC01B0DD
:10084C0030BC02BC084700002C000020032A844660
:10085C0030B4C9B2144627D91CF0030325D11D4668
:10086C001A462B0201325D18042AFAD1604603683D
:10087C0085EA0303A3F10132DB431A4012F0803FF7
:10088C000ED003788B421ED04378421C8B421BD077
:10089C008378821C8B4217D0C378C21C8B4213D036
:1008AC00043C0430032CE2D85CB103788B4206D0B4
:1008BC00621E32B110F8013F013A8B42F9D130BCC3
:1008CC0070470020FBE702461046F8E710F0030FD4
:1008DC00014618BF00460BD108460B6801E050F8E2
:1008EC00043FA3F10132DB431A4012F0803FF6D0F3
:1008FC0003781BB110F8013F002BFBD1401A704755
:10090C0030B5054685B01C468E4651B100F096F8C0
:10091C00B0F1FF3F03D100238A2223602A6005B087
:10092C0030BD0DF10601724600F088F8F0E7C046C4
:10093C00134640F22C02C2F2000270B504460D467A
:10094C00106821462A46FFF7DBFF70BD2DE9F04FFA
:10095C0089B0984602900092129F0191002952D0C2
:10096C001368B8F1000F54D003930025019C2E4658
:10097C000DF1160B039B59460298D7F800A09A5913
:10098C003B46D7F80490FFF7BBFFB0F1FF3F2BD0ED
:10099C00C0EB080240458CBF00230123AA4234BFA0
:1009AC00002303F00103BBB1019B2D186BB1002890
:1009BC0007DD00221BF80230A35401329042F9DC0F
:1009CC002418009A136804331360039A935993B153
:1009DC0004364545CED303E0C7F800A0C7F8049011
:1009EC00284609B0BDE8F08F029A8A2305461360A9
:1009FC0000223A60F4E7019A0AB1009A13600023CE
:100A0C00013D3B60ECE7009B4FF0FF381B68039304
:100A1C00ABE74546E4E7C04670B5164640F22C02FB
:100A2C0082B0C2F2000204460D46214610682A46E6
:100A3C0000933346FFF78AFF02B070BD40F22410DA
:100A4C0070B5C2F200000C4615461E46FFF73EFF7D
:100A5C00012824D940F2241042F2D011C2F2000035
:100A6C00C0F6000100F08AF9F0B9002C44D07F2DBB
:100A7C003FD9A5F18003B3F5F06F3FD205F4F863CD
:100A8C0005F03F0202209B096FEA42626FEA836322
:100A9C006FEA526262706FEA9363237003E0002C7A
:100AAC002AD00120257070BD40F2241042F2D811DA
:100ABC00C2F20000C0F6000100F060F9002840F01E
:100ACC009180CCB12B0AD9B20029EAD001F12003D4
:100ADC0001F17F02DBB2D2B20F2B8CBF00230123BA
:100AEC001E2A98BF43F00103002B67D14FF0FF3053
:100AFC00D9E725700130D6E70020D4E7A5F50063CF
:100B0C00B3F5784FC0F0BB80A5F58033B3F5F81F73
:100B1C0022D205F4E01205F47C3321460420920C19
:100B2C001B0B6FEA02726FEA43636FEA127201F8F1
:100B3C00012B05F47C626FEA5363637005F03F038D
:100B4C0092096FEA43636FEA42626FEA53638B70F8
:100B5C006FEA52624A70A6E7A5F50013B3F1787FED
:100B6C0080F0B08005F0407205F47C032146120E33
:100B7C009B0C6FEA42726FEA43636FEA52726FEA40
:100B8C00536301F8012B05F47C62637005F47C332C
:100B9C009209481C1B0B6FEA42626FEA43636FEACF
:100BAC0052626FEA53634B7005F03F0342706FEA79
:100BBC0043636FEA53638370052074E7E8B2A0F1D6
:100BCC00400280F080037C2B8CBF00230123D2B227
:100BDC003E2A98BF43F00103002B87D0607002209F
:100BEC00217060E740F2241042F2E011C2F20000E2
:100BFC00C0F6000100F0C2F8C0B9002C3FF47CAF85
:100C0C002B0AD9B200293FF44CAF01F15F03DBB2E0
:100C1C005D2B3FF66BAFEAB202F15F03DBB25D2BEB
:100C2C003FF664AF2170023062703CE740F2241052
:100C3C0042F2E811C2F20000C0F6000100F09EF88A
:100C4C0000287FF42CAF002C3AD02B0A5FFA85FEDB
:100C5C00DDB2002D71D133686BB1214635601B2399
:100C6C00282201F8013B042062708C1C27334B7046
:100C7C0084F800E017E7012084F800E013E7A5F5FD
:100C8C005843B3F5006FFFF431AF05F470422146C1
:100C9C0005F47C630320120B9B096FEAC2626FEAB6
:100CAC0043636FEAD26201F8012B05F03F026FEA51
:100CBC00536363706FEA42626FEA52624A70F2E603
:100CCC000130F0E605F17C43B3F1F84FBFF40EAF01
:100CDC0005F0804205F07C532146920F1B0E6FEA03
:100CEC0082726FEA43636FEA92726FEA536301F8A0
:100CFC00012B05F47C62637005F47C03481C92099B
:100D0C009B0C441C6FEA42626FEA43636FEA5262C7
:100D1C006FEA53634B7005F47C331B0B6FEA436330
:100D2C006FEA5363437005F03F03627006206FEA6D
:100D3C0043636FEA5363A370B5E6A5F12103DBB2FD
:100D4C005D2B3FF6D3AEAEF12103DBB25D2B3FF64C
:100D5C00CDAE33687BB921460123242233600520B4
:100D6C001A3301F8013B273362708C1C4B702570D1
:100D7C0084F801E097E60220F9E7C04641EA000357
:100D8C00024613F0030F04D102680B689A4212D08A
:100D9C000246107820B917E012F8010F013198B112
:100DAC000B788342F8D0C01A704750F8042F51F8D2
:100DBC00043F9A42ECD1A2F10133D243134013F019
:100DCC00803FF2D00020EFE70B78ECE7002934D01D
:100DDC000123002210B488422CD301242407A14201
:100DEC0004D2814202D209011B01F8E7E400A142BE
:100DFC0004D2814202D249005B00F8E7884201D359
:100E0C00401A1A434C08A04202D3001B5C08224330
:100E1C008C08A04202D3001B9C082243CC08A042A1
:100E2C0002D3001BDC082243002803D01B0901D08D
:100E3C000909E3E7101C10BC704708B14FF0FF30F4
:100E4C0000F00AB80029F8D003B5FFF7C1FF0EBCBB
:100E5C004243891A1847C0467047C0462DE9F04FE7
:100E6C0085B000F00DFD00F00BFD00F009FD102029
:100E7C00012101F063F803AD00F044FD00F0E0FA4D
:100E8C0000F0ACFA00F05EFB00F082FB00F024FCFA
:100E9C0000F040FC0420012101F050F803264FF033
:100EAC0070021024B3482946ADF80C208DF80E6062
:100EBC008DF80F4000F022FFAE48702100F07AFF51
:100ECC004FF0FF03AC482946ADF80C308DF80E609E
:100EDC008DF80F4000F012FF00F03AFC00F040FCDF
:100EEC0000F0BAFCA54AA64B12884FF000081A80F5
:100EFC00A448802100F076FF0028F9D002219D48FB
:100F0C0000F050FF012805D108F1010800F0B0FCF9
:100F1C0000F0AEFC0121974800F044FF0128044684
:100F2C0002D04FF0000B04E000F0A2FC00F0A0FC9B
:100F3C00A34694481FFA8BF100F04CFF91482021F6
:100F4C0000F050FF0028F9D08E4800F047FF0190C8
:100F5C0001998D48FFF7D4F859468C48FFF7D0F823
:100F6C008B484146FFF7CCF8B8F1010F4ED0B8F1E1
:100F7C00020F12D100F010FC00F054FC00F072FCD7
:100F8C0000F0FCFB00F0E4FB00F06CFC00F0E8FB74
:100F9C0000F0DEFB00F066FC51E0B8F1030F04D169
:100FAC0000F0FAFB00F03EFC2EE0B8F1040F04D187
:100FBC0000F0F2FB00F028FCE0E7B8F1050F04D1DB
:100FCC0000F0EAFB00F020FC1EE0B8F1060F04D1A3
:100FDC0000F0E2FB00F00AFCD0E7B8F1070F04D1F7
:100FEC0000F0DAFB00F002FC0EE0B8F1080F04D1BF
:100FFC0000F0D2FB00F0ECFBC0E7B8F1090F0AD10E
:10100C0000F0CAFB00F0E4FB00F02CFC00F0B6FB97
:10101C0000F0D0FBB8E7B8F10A0F04D100F0BCFB2C
:10102C0000F0C8FBAAE75348102100F0C1FE00F005
:10103C0097FB00F08DFB00F015FC4FF00008019AB7
:10104C001AB9BBF1000F3FF453AF4A48102100F01E
:10105C00B1FE00244748202100F0AAFEA1464FF023
:10106C00060AFAE04B48FFF789F8444B444F53F813
:10107C00241049483980FFF743F8484D3B884848CD
:10108C00EB80294600F064FD09F00106B9F1000F70
:10109C000CD144484FF4805100F08CFE3F884048FE
:1010AC002946EF8000F054FD00F0F2FBB9F1000F7F
:1010BC000DD03C484FF4805100F07AFE304B37494C
:1010CC001B883748CB8000F043FD00F0E9FB01346E
:1010DC00032C40F0C280B8F1010F0CD1284B2F49E2
:1010EC004FF000021A80CA802D4800F031FD002E0E
:1010FC0040F0A480A0E0B8F1020F0CD1204B27499E
:10110C004FF000021A80CA80254800F021FD002E05
:10111C0040F094808EE0B8F1030F0CD1184B1F49AE
:10112C004FF000021A80CA801D4800F011FD002EFD
:10113C0040F084807CE0B8F1040F0BD1104B1749C0
:10114C004FF000021A80CA80154800F001FD002EF5
:10115C0074D16BE0B8F1050F26D1094B0F494FF054
:10116C0000021A80CA800E4800F0F2FC002E65D1F5
:10117C005AE0C04600080140001001400000002069
:10118C0030010020004800400821000821210008FF
:10119C003021000842210008602100084E01002087
:1011AC0000080040000C0140B8F1060F0BD13F4B7A
:1011BC003F494FF000021A80CA803E4800F0C8FC3C
:1011CC00002E3BD12EE0B8F1070F0AD1374B38492E
:1011DC004FF000021A80CA80364800F0B9FC6EBB92
:1011EC001EE0B8F1080F0AD1304B31494FF0000224
:1011FC001A80CA802F4800F0ABFCFEB90EE0B8F1A3
:10120C00090F1BD1294B2A494FF000021A80CA80C2
:10121C00284800F09DFCC6B900F048FB00F046FBE6
:10122C0000F044FB00F042FB00F040FB00F03EFB02
:10123C0000F03CFB00F03AFB00F038FBB9F1000F7A
:10124C0003D14C4609F1010907E0B9F1000F01D1B6
:10125C00002402E04FF000094C46BAF1010ABFF439
:10126C0001AF019B1BB9BBF1000F3FF441AE402114
:10127C00114800F09DFD00F0FBFA00F0F9FA00F0C7
:10128C00F7FA00F0F5FA00F0F3FA00F0F1FA00F0DA
:10129C00EFFA00F0EDFA00F0EBFA4021064800F00E
:1012AC0089FD0548202100F085FD21E63001002054
:1012BC004E01002000080040000801407047C04665
:1012CC00FEE7C046FEE7C046FEE7C046FEE7C04666
:1012DC007047C0467047C0467047C0467047C0460E
:1012EC0010B54FF4007000F0CFFB18B14FF4007044
:1012FC0000F0D8FB10BDC04610B5012000F0C4FBB7
:10130C0050B1064A0648D36883F02003D360FEF739
:10131C0035FF012000F0C6FB10BDC046000C01409B
:10132C006F210008012110B5134800F0E3FC134AAB
:10133C00136801331360124A03EA0202002A05DA29
:10134C00013A6FEAC2726FEAD2720132012A09D1F4
:10135C0020210C4800F02CFD0A484FF4807100F05D
:10136C0027FD08E00748202100F024FD05484FF434
:10137C00807100F01FFD10BD0004004038010020FA
:10138C0001000080000C0140012110B54FF080409D
:10139C0000F0B0FC0E4A5368013353600D4A03EA67
:1013AC000202002A05DA013A6FEAC2726FEAD272BF
:1013BC000132012A05D108484FF4007100F0F8FC05
:1013CC0004E005484FF4007100F0F4FC10BDC04679
:1013DC003801002001000080000C014073B501AE03
:1013EC00002401251C2330468DF804308DF805406F
:1013FC008DF806408DF8075000F00EFB1D2330468B
:10140C008DF804308DF805408DF806508DF8075096
:10141C0000F002FB21464FF0006000F02BFB4FF474
:10142C00E06000F0EFFA062330468DF804308DF8BA
:10143C0005408DF806408DF8075000F0EDFA7CBDA4
:10144C002DE9F0413B4C00264EF65F2840F2AF43AD
:10145C00394DA380A4F80080E68066802672214670
:10146C004FF0804000F024FB40F20773A380A4F8F7
:10147C000080E680668026722846214600F018FB24
:10148C0001214FF0804000F001FC2846012100F0C2
:10149C00FDFB414601224FF0804000F011FC01227F
:1014AC002846414600F00CFC01214FF0804000F032
:1014BC001DFC2846012100F019FC01210A464FF0C1
:1014CC00804000F0F1FB01210A46284600F0ECFBBD
:1014DC001A4940F2CF2305F580658B804FF06303EA
:1014EC00174C0B80CE804E80284600F0E1FA4FF06E
:1014FC0001084FF06003238028462146A4F802809F
:10150C00E680268100F024FB2846082100F0DCFB55
:10151C0028462146A4F80280E68000F069FB2846A4
:10152C00082100F0D9FB2846414600F0AFFBBDE88E
:10153C00F081C04644010020000400405E01002000
:10154C004E01002010B50420012100F005FD0420FF
:10155C00012100F0F3FC0820012100F0EFFC012038
:10156C00014600F0EBFC01214FF4804000F0E6FC5A
:10157C0001214FF4802000F0EFFC01214FF480504A
:10158C0000F0DCFC4FF48040012100F0E5FC10BDC4
:10159C002DE9704FDFF8F8A086B0102603240DEB70
:1015AC0006054FF44873504605A94FF0180BDFF8A9
:1015BC00E490ADF814308DF817608DF8164000F0FB
:1015CC009DFB4FF44C6350462946ADF810308DF816
:1015DC0012400DF10C088DF813B000F08FFB4FF496
:1015EC004C5350462946ADF810308DF813608DF8E9
:1015FC00124000F083FB4FF4007348464146ADF8AF
:10160C000C3004258DF80E4006F57C768DF80FB065
:10161C0000F074FB48464146ADF80C608DF80F5055
:10162C0000F06CFBADF8086002AE504631468DF808
:10163C000A408DF80BB000F061FB4FF4006350468C
:10164C003146ADF808308DF80B5000F057FB48468A
:10165C000DEB0501ADF804408DF8075000F04EFB82
:10166C004FF0E00348466946ADF800308DF8024073
:10167C008DF803B000F042FB4EF200035046694671
:10168C006C46ADF8003000F039FB06B0BDE8708F49
:10169C00000C0140000801400A2810B504460CD18A
:1016AC000C480D2100F096FB0A48802100F09AFBB3
:1016BC000028F9D007480A2101E00648E1B200F001
:1016CC0089FB0448802100F08DFB0028F9D02046CE
:1016DC0010BDC046003801401FB50D4C4FF4E1332E
:1016EC000093A3F5E133ADF80430ADF80630ADF856
:1016FC000830ADF80C3020464FF00C036946ADF8BD
:10170C000A3000F075FB2046012100F055FB1FBD8F
:10171C00003801401FB50D4C4FF4E1330093A3F595
:10172C00E133ADF80430ADF80630ADF80830ADF863
:10173C000C3020464FF00C036946ADF80A3000F02F
:10174C0057FB2046012100F037FB1FBD004800402D
:10175C0010B502480F2100F02DFB10BD0010014008
:10176C0010B5054CE021204600F024FB204610214A
:10177C0000F01EFB10BDC0460010014010B5054C1A
:10178C00D021204600F016FB2046202100F010FB53
:10179C0010BDC0460010014010B5054CB0212046CC
:1017AC0000F008FB2046402100F002FB10BDC046B3
:1017BC000010014010B5054C0521204600F0F8FA48
:1017CC0020460A2100F0F6FA10BDC0460010014078
:1017DC0010B5054C0421204600F0EAFA20460B21F6
:1017EC0000F0E8FA10BDC0460010014010B5054CE1
:1017FC000321204600F0DCFA20460C2100F0DAFA36
:10180C0010BDC0460010014010B5054C0221204609
:10181C0000F0CEFA20460D2100F0CCFA10BDC046E7
:10182C000010014010B5054C0121204600F0C0FA13
:10183C0020460E2100F0BEFA10BDC046001001403B
:10184C0082B0019002E0019B013B0193019B002BB4
:10185C00F9D102B07047C04610B547F23050FFF7CF
:10186C00EFFF10BD10B542F21070FFF7E9FF10BD8D
:10187C0010B50248FFF7E4FF10BDC046C44E0C0083
:10188C0010B50248FFF7DCFF10BDC04644691200DA
:10189C0010B50248FFF7D4FF10BDC046D8C40300F2
:1018AC0010B54FF47A30FFF7CBFF10BD10B50248DE
:1018BC00FFF7C6FF10BDC046A026F903002103E0C8
:1018CC000A4B5B584350043109480A4B42189A4260
:1018DC00F6D3094A02E0002342F8043B074B9A4234
:1018EC00F9D300F00FF8FFF7B9FA7047F0210008B0
:1018FC000000002030010020300100206801002091
:10190C00FEE700003B4A82B0136843F0010313600A
:10191C005168394B01EA03035360136823F0847355
:10192C0023F480331360136823F48023136053680B
:10193C0023F4FE0353604FF41F039360A3F51F03BE
:10194C0001930093136843F480331360294B1B6895
:10195C0003F400330093019B01330193009B1BB9EB
:10196C00019BB3F5A06FF1D1224B1B6813F400332C
:10197C0018BF01230093009B012B35D11F4A13681C
:10198C0043F010031360136823F003031360136810
:10199C0043F002031360A2F58052536853605368FE
:1019AC005360536843F480635360536823F47C138F
:1019BC005360536843F488135360136843F0807387
:1019CC0013600C4A136813F0007FFAD0536823F0AD
:1019DC0003035360536843F002035360054B5B6889
:1019EC0003F00C03082BF9D1054B4FF000629A6001
:1019FC0002B07047001002400000FFF800200240C7
:101A0C0000ED00E040F0BE60024B40F42020D860B6
:101A1C007047C04600ED00E0C37890F800C0D3B129
:101A2C00124B4178DA68D243C2F30222C2F10403AA
:101A3C0099400F23D340827813400B430C4A1B016F
:101A4C00DBB2624482F800330CF01F0201234FEA30
:101A5C005C11934006E00CF01F02012393404FEA07
:101A6C005C112031024A42F82130704700ED00E051
:101A7C0000E100E021F0604121F07F01014B0143C6
:101A8C009960704700ED00E0054B1A685B690340F4
:101A9C0001D1184603E010420CBF00200120704712
:101AAC0000040140014B58617047C04600040140DE
:101ABC0003889AB2244B984212D003F500639842E3
:101ACC000ED0B0F1804F0BD0A3F59833984207D0CD
:101ADC0003F58063984203D003F58063984206D1E6
:101AEC004FF68F7302EA03034A8843EA0202174B4C
:101AFC0098420AD003F58063984206D04FF6FF4314
:101B0C0002EA0303CA8843EA020202808B888385B7
:101B1C000B8803850C4B98420FD003F50063984259
:101B2C000BD003F54063984207D003F580639842CD
:101B3C0003D003F58063984201D10B7A03864FF0F2
:101B4C00010383827047C046002C01400010004006
:101B5C00038CF0B523F001031B041B0C03840C460F
:101B6C00018C838822899DB2038B21F002019EB2E5
:101B7C00638809041343090C9BB243EA010C1B4B09
:101B8C00278898420FD003F5006398420BD003F5D9
:101B9C004063984207D003F58063984203D003F565
:101BAC008063984216D163894FF6F7720CEA0202F1
:101BBC001A434FF6FB7302EA0303A2884FF6FF4168
:101BCC0043EA020CE389A28905EA010113439BB2A3
:101BDC0043EA01054FF68C7306EA03033B43858009
:101BEC000383E3888386A0F820C0F0BD002C01405D
:101BFC00038C70B523F010031B041B0C0384038CA3
:101C0C00828823F0200394B2028B1B0495B20A89BC
:101C1C001B0C43EA02134A889BB243EA02131FFAD5
:101C2C0083FC194B0E88984203D003F5006398424D
:101C3C001BD14B894FF67F720CEA020242EA031267
:101C4C004FF6BF7302EA03038A8843EA02131FFAB2
:101C5C0083FC8A894FF2FF3304EA030343EA8203CD
:101C6C00CA899BB243EA82039CB248F6FF4305EA59
:101C7C00030343EA06239BB284800383CB88038748
:101C8C00A0F820C070BDC046002C014021B10388D3
:101C9C009BB243F0010304E0038823F001031B040F
:101CAC001B0C03807047C04622B183899BB241EA6A
:101CBC00030303E083899BB223EA0103838170470A
:101CCC00018582827047C046038B23F008031B04F6
:101CDC001B0C194301837047038B23F400631B0413
:101CEC001B0C43EA01239BB203837047C94389B29F
:101CFC0001827047C94389B201827047F0B5CD7833
:101D0C000E8815F0100F18BF8B7805F00F0718BF51
:101D1C001F4316F0FF0F20D004684FF0000C012376
:101D2C0003FA0CF303EA0601994210D14FEA8C0234
:101D3C000F23934017FA02F224EA0303282D43EAF7
:101D4C00020401D1416102E0482D08BF01610CF190
:101D5C00010CBCF1080FE2D10460FF2E21D94468BC
:101D6C004FF0000C01230CF10802934003EA06012A
:101D7C00994210D14FEA8C020F23934017FA02F2CA
:101D8C0024EA0303282D43EA020401D1416102E055
:101D9C00482D08BF01610CF1010CBCF1080FE1D119
:101DAC004460F0BD836819420CBF002001207047CD
:101DBC00016170474161704721B183899BB243F443
:101DCC00005304E0838923F400531B041B0C838110
:101DDC007047C046C905C90D818070478088C00511
:101DEC00C00D7047038819420CBF002001207047BA
:101DFC00038ACA8823F440531B041B0C134303822D
:101E0C0082890B8930B50D46898822F4B0520B4378
:101E1C00698922F00C020B431204120C9BB213437F
:101E2C008381838AAA8923F440731B041B0C87B01B
:101E3C0013430446838201A800F034F8184B296838
:101E4C009C42A38908BF04981BB218BF0398002BAF
:101E5C0003DA192343434A0002E0192343438A005F
:101E6C00B3FBF2F16420B1FBF0F31A01130900FB90
:101E7C001311A3891BB2002B06DACB003233B3FB50
:101E8C00F0F303F0070305E00B013233B3FBF0F37F
:101E9C0003F00F0343EA02018BB2238107B030BD7C
:101EAC000038014010B504461E48436803F00C038B
:101EBC00042B02D0082B14D101E01B4B12E0436819
:101ECC004268C3F38343991C12F4803F01D1174B32
:101EDC0005E0436813F4003F14BF154B124B4B4302
:101EEC0000E0144B0F48236043681349C3F30313FA
:101EFC00CB5C2268DA4062604368C3F30223CB5C9C
:101F0C0032FA03F3A3604368C3F3C223CB5CDA4019
:101F1C00E2604368C3F38133C9180B7CB2FBF3F264
:101F2C00226110BD00100240001BB70000093D00EB
:101F3C00808D5B0000127A001800002021B1054A48
:101F4C00936940EA030303E0024A936923EA00031E
:101F5C00936170470010024021B1054AD36940EAF1
:101F6C00030303E0024AD36923EA0003D3617047F9
:101F7C0000100240101C704754020008A80600080C
:101F8C00A806000866020008A8060008A8060008B3
:101F9C00A8060008A8060008A8060008A80600085D
:101FAC00700200088A020008A806000880020008D7
:101FBC0094020008A8060008F602000800030008B6
:101FCC0000030008000300080003000800030008D9
:101FDC0000030008000300080003000800030008C9
:101FEC00A8060008A8060008A8060008A80600080D
:101FFC00A8060008A8060008A8060008A8060008FD
:10200C00A80600085A030008A6030008A806000842
:10201C00A8060008A8060008A8060008A8060008DC
:10202C00A8060008A8060008A8060008A8060008CC
:10203C00A80600081C040008A8060008A80600084A
:10204C00A806000864040008A80600083805000863
:10205C00A8060008A806000870050008A8060008D5
:10206C00A8060008A8060008A8060008A80600088C
:10207C00A8060008A8060008A8060008A80600087C
:10208C00A80600085A030008AE030008A8060008BA
:10209C00A8060008A806000824030008AE030008E0
:1020AC00A8060008A80600082E030008A8060008C9
:1020BC00EA030008240400084A040008500300083E
:1020CC00A806000864040008A806000840050008DB
:1020DC00A8060008A80600084E02000820202020B0
:1020EC0020202020202020202020202030303030A4
:1020FC003030303030303030303030305265636515
:10210C00697665642064617461206973202564209C
:10211C003D6F6B0A006F6B206461746120697320E2
:10212C0025640A00636F756E7420646174612069A4
:10213C00732025640A002D2D2D2D2D2D2D2D2D2DAB
:10214C002D2D2D2D2D2D2D2D2D2D2D2D2D2D2D2DB3
:10215C002D2D2D00434352315F56616C203A2025C2
:10216C00640A0045585449305F49525148616E64C5
:10217C006C65720030313233343536373839616240
:10218C006364656600000000303132333435363715
:10219C0038394142434445460000000062756720CF
:1021AC00696E2076667072696E74663A206261643C
:1021BC002062617365000000286E756C6C2900004C
:1021CC0043000000432D5554462D3800432D534AEF
:1021DC0049530000432D4555434A5000432D4A496D
:0421EC00530000009C
:1021F0000A0000000A0000000A0000000A000000B7
:102200000A0000000A0000000000000001020304B0
:102210000102030406070809020406083000002032
:1022200000000000000000000000000000000000AE
:10223000000000000000000000000000000000009E
:10224000CC21000800000000000000000000000099
:10225000000000000000000000000000000000007E
:10226000000000000000000000000000000000006E
:10227000000000000000000000000000000000005E
:10228000000000000000000000000000000000004E
:10229000000000000000000000000000000000003E
:1022A000000000000000000000000000000000002E
:1022B000000000000000000000000000000000001E
:1022C000000000000000000000000000000000000E
:1022D00000000000000000000000000000000000FE
:1022E00000000000000000000000000000000000EE
:1022F00000000000000000000000000000000000DE
:1023000000000000000000000000000000000000CD
:102310000100000043000000000000000000000079
:040000050800010CE2
:00000001FF
